:100000006F00B0391300000013000000130000005F
:100010001300000013000000130000001300000094
:100020001300000013000000130000001300000084
:08003000130000007300100032
:100038006FF09FFC000000006F00801A6F00801AAC
:1000480000000000000000000000000000000000A8
:100058000000000000000000000000000000000098
:100068006FF09FF9000000006FF01FF9000000001A
:100078006FF09FF86FF05FF86FF01FF86FF0DFF721
:100088006FF09FF76FF05FF76FF01FF76FF0DFF615
:100098006FF09FF66FF05FF66FF01FF66FF0DFF509
:1000A8006FF09FF56FF05FF56FF01FF56FF0DFF4FD
:1000B8006FF09FF46FF05FF46FF01FF40000000022
:1000C8000000000000000000000000006FF0DFF2F8
:1000D8006FF09FF26FF05FF26FF01FF26FF0DFF1D9
:1000E8006FF09FF16FF05FF16FF01FF16FF0DFF0CD
:1000F8006FF09FF06FF05FF06FF01FF06FF0DFEFC1
:100108006FF09FEF6FF05FEF6FF01FEF6FF0DFEEB4
:100118006FF09FEE6FF05FEE6FF01FEE6F00B0169E
:1001280000000000000000000000000000000000C7
:080138000000000000000000BF
:100140003D432A876373C3029377F700BDEFADE5A4
:10015000937606FF3D8ABA960CC34CC30CC74CC7B6
:100160004107E36BD7FE11E28280B306C3408A06E3
:100170009702000096966780A6002307B700A306A3
:10018000B7002306B700A305B7002305B700A304F3
:10019000B7002304B700A303B7002303B700A302EB
:1001A000B7002302B700A301B7002301B700A300E3
:1001B000B7002300B700828093F5F50F9396850072
:1001C000D58D93960501D58D61B79396270097023B
:1001D000000096968682E78086FA9680C1171D8F6A
:1001E0003E96E374C3F8A5B77300203001A0411117
:1001F00026C2AA84114506C622C42E84EF00D05917
:100200003747024083270780268593E7470023204E
:10021000F780EF007047A2852244B2409244056502
:1002200041016F009055797185451305002006D670
:1002300022D426D2EF005056316537240140EF001A
:10024000F04613050440EF00F01CB7070E002C0029
:100250003ECA130504408547230EF10002C402C6BE
:1002600002C802CCEF00701D0545EF00D032854575
:1002700013050440EF00702113050440EF00F02146
:10028000930404402685EF00F0216DFD1305044022
:1002900037240140EF009021130404402285EF0031
:1002A00090216DFDB25022549254456182804111DB
:1002B00022C437240140AA859D4605461305044003
:1002C00006C626C2EF003021854513050440EF0025
:1002D000101F9304044089452685EF00D02D65DD6D
:1002E000130504402244B240924441016F00302A79
:1002F000011122CC26CA4AC806CE2A89014481446B
:10030000631CB40033D58402F2406244D2444249B3
:1003100005614205418182804A852EC6493FAA94E3
:100320000545EF00307205041374F40FB245C9BFE0
:10033000411106C622C4C53DA9454545553F2A84FD
:1003400037250140814513050540EF0010141305C2
:1003500000208145EF0050441335C444B24022448C
:10036000410182804111094506C6EF009031EF003E
:10037000D06A716513050520EF00D06FB707002024
:1003800083A507073725000013058571EF100004CA
:10039000453759C13725000013058572EF10A014A9
:1003A000374702408327078093E787002320F780A1
:1003B0003725000013054573EF10E0129387818BFA
:1003C00023A6F1C09387818F23AAF1C0938781A7C9
:1003D00023A2F1C0938781B723A4F1C093878197AB
:1003E00023A0F1C0B70700209387470A23A8F1C0D4
:1003F0009387819F23AEF1BE938781AF85450145E9
:1004000023ACF1BEED33EF00904DB7E700E03707C6
:10041000000823A2E71001A0372500001305C572CC
:10042000EF10600C71B7814713F7F70F6364A700F3
:100430006F00105503A741C13E978346070085070B
:1004400093C6F6FF2300D704C5B7814713F7F70F0C
:100450006364A7006F00305403A741C03E978346F2
:100460000700850793C6F6FF2300D704C5B7814769
:1004700013F7F70F6364A7006F00505303A781C001
:100480003E9783460700850793C6F6FF2300D704EF
:10049000C5B7814713F7F70F6364A7006F00705269
:1004A00003A701C03E9783460700850793C6F6FF62
:1004B0002300D704C5B7814713F7F70F6364A7007C
:1004C0006F00905103A701C13E978346070085073F
:1004D00093C6F6FF2300D704C5B7814713F7F70F7C
:1004E0006364A7006F00B05003A7C1BF3E97834667
:1004F0000700850793C6F6FF2300D704C5B78147D9
:1005000013F7F70F6364A7006F00D04F03A781BFF5
:100510003E9783460700850793C6F6FF2300D7045E
:10052000C5B7B737024003C767401377F70F937615
:100530002700638A0650011106CE22CC26CA4AC87B
:100540004EC652C403C777409306000213770703D1
:10055000630DD724930600036302D7026314070ECA
:1005600083C777401D4793F7F703636DF70C09675F
:100570008A0713078760BA979C438287130720FC7A
:100580002389E74283C7874021476317F70A03A5FA
:10059000C1C0034775008347650022075D8F23971D
:1005A000E182834715002388F182034A0500137610
:1005B0000A0659E229466361F60809668A071306A6
:1005C0008662B2979C438287834735008346250025
:1005D0000946A207D58F93D687006382C6088D454A
:1005E0006388B6088547639DF60889679387876E99
:1005F00023AAF18A0149C947C207C18363F4E7000E
:100600002397F18203D6E1829307000463F4C700C5
:10061000130600049319060183A5418B93D90901A0
:100620004E86EF00504F03A6418B9307F00F4E9676
:1006300023AAC18A6315F90AB73702401307F0FCF1
:100640002389E742B737024009472383E740F24056
:100650006244D2444249B249224A05618280896794
:100660009387476723AAF18A01499307400769B72F
:1006700093F7F70F85466389D7009DC7638EC70040
:100680001309F00F81478DBF89679387C76F23AA2E
:10069000F18A0149B9478DB789679387C77023AA43
:1006A000F18A0149B14789BF9387C18023AAF18AA2
:1006B0000149914791B7834725002397F18205A00F
:1006C00083C7C1822300F50003D7E182854763F821
:1006D000E7008547DDB7034725002386E182620AEC
:1006E000135A8A41814663520A0283D7E1829306F4
:1006F00000043E8763F4F6001307000442074183B9
:10070000998F9376F70F2397F182B73702402388AA
:10071000D742130700FC2DB71377FA018947E31D71
:10072000F7F0834745006381E704636CF7000547F2
:10073000E394E7F0373702408347674393F737077F
:1007400099A0130710086388E70213072008E395B0
:10075000E7EE373702408347A74393F7C70B93E78A
:100760002700230DF742A5BF373702408347A74331
:1007700093F73707FDB7373702408347674393F74F
:10078000C70B93E72700230BF74291BF2300050017
:1007900025BF2300050083A7C1C0A380070003D79E
:1007A000E1828947E3FDE7F209BF83C777401D4730
:1007B00093F7F703811793F7F70FE365F7E80967F6
:1007C0008A0713074765BA979C43828783C70183CB
:1007D0001547638BE70419476397E70603D4E18263
:1007E0009307000463F487001304000403A5C1C049
:1007F000420483A5418B41802286EF00D03183D70C
:10080000E1829379F40F818F2397F18283A7418B43
:100810003E9423AA818AB73702402388374303C70F
:1008200027431347070429BD373702408347374022
:1008300083C6E18293F70708D58FA301F740894764
:100840002309F74201B5B737024023880742094719
:10085000C5BB373702408347674393C70704230B61
:10086000F7428347674393F7C70F93E72700230BAC
:10087000F742C9BB373702408347A74393C70704F2
:10088000230DF7428347A74393F7C70F93E727004A
:10089000230DF74245BB373702408347E74393C7F1
:1008A0000704230FF7428347E74393F7C70F93E704
:1008B0002700230FF74279B3373702408347274495
:1008C00093C707042301F7448347274493F7C70FCF
:1008D00093E727002301F744B5B337370240834736
:1008E000674493C707042303F7448347674493F798
:1008F000C70F93E727002303F744A9B33737024014
:100900008347A74493C707042305F7448347A744B5
:1009100093F7C70F93E727002305F74425B337372D
:1009200002408347E74493C707042307F7448347FC
:10093000E74493F7C70F93E727002307F74419B35A
:10094000B737024083C78740F5B9B737024003C7BE
:10095000774013770704E30707CE03C767431347BE
:100960000708238BE74203C58740753CE1B9B737D9
:10097000024003C7774013770704E30507CC03C79A
:10098000A74313470708238DE74203C58740753CFB
:1009900055B9B737024003C7774013770704E3031D
:1009A00007CA03C7E74313470708238FE74203C576
:1009B0008740753C41B9B737024003C7774013778A
:1009C0000704E30107C803C7274413470708238127
:1009D000E74403C58740753CB5B1B737024003C74C
:1009E000774013770704E30F07C403C7674413472F
:1009F00007082383E74403C58740753CA1B1B73797
:100A0000024003C7774013770704E30D07C203C70B
:100A1000A744134707082385E74403C58740753C6F
:100A200015B1B737024003C7774013770704E30BCC
:100A300007C003C7E744134707082387E74403C5F4
:100A40008740753C01B1937617009DCAA38107408A
:100A500009472389E742238BE742238DE742238F0F
:100A6000E7422381E7442383E7442385E744238740
:100A7000E74403C76740136717002383E74082807A
:100A800093764700FDDA03C757401147FDB7513C45
:100A900073002030B71702409843B706FFF84111A2
:100AA0001367170098C3D84337060200758FD8C361
:100AB0009843B706F7FEFD16758F98C39843B7069F
:100AC000FCFFFD16758F98C3D843B70681FFFD164E
:100AD000758FD8C337079F0098C702C402C69843D2
:100AE000C166558F98C3B7160240130700509C4249
:100AF000F18F3EC6A24785073EC4B24781E7A247B1
:100B0000E397E7FEB71702409C431397E70063544F
:100B1000070885473EC632478547631CF706B72757
:100B200002409843B706C1FFFD161367070198C33B
:100B30009843719B98C398431367270098C3B717CE
:100B40000240D843D8C3D843D8C3D843136707401B
:100B5000D8C3D843758FD8C3D843B7061D00558F67
:100B6000D8C39843B7060001558F98C3984393168E
:100B70006700E3DD06FED843B7160240719BD8C379
:100B8000D84313672700D8C32147DC42B18BE39ECB
:100B9000E7FE4101828002C6BDBF9701002093811C
:100BA00061CD174100201301E14517250000130511
:100BB000A5C397F5FF1F9385E5441386818163FAEA
:100BC000C5008322050023A0550011059105E3EA25
:100BD000C5FE138581819385C1C16377B50023204C
:100BE00005001105E36DB5FE9302800873A0023085
:100BF00097F2FFFF9382824493E212007390523087
:100C0000EFF05FE997F2FFFF938202767390123460
:100C100073002030B727014093870740631EF5001B
:100C2000411185451305002006C67126B240814555
:100C300013050020410141A682805C413707F1FF86
:100C40001307F7EF7D8FDC419441A207D58FD98F31
:100C50005CC11C4537F7F1FF1307D77FD4457D8F63
:100C60009C49D58F94458606D58FD98F1CC55C5578
:100C7000370710FF7D177D8F83C74501FD1793F759
:100C8000F70FD207D98F5CD582801C4589C593E7C1
:100C900017001CC58280F99BEDBF1C4593E78700B8
:100CA0001CC5828008450D81058982801C4593E71B
:100CB00047001CC5828008450981058982801C4542
:100CC00091C537075000D98F1CC582803707B0FF08
:100CD0007D17F98FD5BFA54763F7B7048D471387F5
:100CE00065FF3307F7020328C5009D47B397E70068
:100CF00093C7F7FFB3F70701B396E600DD8E54C53F
:100D0000994763E3C70495477D163306F6025859A1
:100D1000FD47B397C70093C7F7FFF98F3396C50018
:100D20005D8E50D982800D473387E5020328050187
:100D30009D47B397E70093C7F7FFB3F70701B39653
:100D4000E600DD8E14C96DBFB14763E2C702954767
:100D500065163306F6021859FD47B397C70093C7C7
:100D6000F7FFF98F3396C5005D8E10D982809547C5
:100D70004D163306F6025855FD47B397C70093C783
:100D8000F7FFF98FB395C500DD8D4CD5828068459E
:100D9000420541818280B7270140938707409847E9
:100DA00011C5B7068000558F98C78280B70680FFAF
:100DB000FD16758FD5BF08416D8D3335A00082803B
:100DC0009C4513F7070113F8F70001C7D8413368B2
:100DD000E80083D5050013F7F50F39C318418146A4
:100DE000854E3D4F930F800293028004214E33962F
:100DF000DE00B3F8C5006311160393982600331381
:100E00001F011343F3FF3377E300B318180133E7EF
:100E1000E800639FF70550C98506E39AC6FD18C12F
:100E20001307F00F6375B70454412146854E3D4FBB
:100E3000930F800293028004414EB398CE0033F7A3
:100E400015016392E8021317260001173313EF0010
:100E50001343F3FFB376D3003317E800D98E639DB5
:100E6000F701232A15010506E319C6FD54C1828046
:100E7000E39457FA10C94DB7E39757FE232815019D
:100E8000DDB723ACA180828009C9371702405C43DB
:100E9000B7064000D58F5CC38280B7160240DC42A3
:100EA0003707C0FF7D17F98FDCC28280B71602407A
:100EB000DC4251777D17F98F5D8DC8C2828037176C
:100EC00002405C439146B18B6385D700A14663869F
:100ED000D706B7177A00938707201CC13716024040
:100EE0005C4237070020130707009183BD8BBA9738
:100EF00083C607001C41B3D7D7005CC15442A1820E
:100F00009D8ABA9683C60600B3D6D70014C554424C
:100F1000AD829D8A369703470700B3D7E7005CC5CB
:100F200058423983937637001387418036970347B9
:100F30000700B3D7E7021CC982805C435443C983CE
:100F4000BD8B1396F6008907634D060037470240B4
:100F500003270780418B19CB37177A001307072027
:100F600011A858439316E700E3D806FE37173D0053
:100F700013070790B387E7028DB799C5371702406B
:100F80005C4B5D8D48CB8280B7170240D84B134530
:100F9000F5FF798DC8CB828099C5371702401C4F69
:100FA0005D8D08CF8280B7170240984F1345F5FF3B
:100FB000798D88CF828099C5371702405C475D8D57
:100FC00048C78280B7170240D8471345F5FF798D8F
:100FD000C8C7828083560501F577FD17F58F83D644
:100FE0006500397122DC06DED58F03D7C5002318D2
:100FF000F5008356C500FD779387379FF58F83D61D
:1010000045002A842EC6D58F83D68500D58F83D6FA
:10101000A500D58F2316F50083574501C207C1836C
:1010200093F7F7CFD98F231AF5006808493DB747E2
:10103000014093870780B245631EF404A25783568C
:10104000C4006547B387E702C206C186984163D5ED
:10105000060406070356C4004206B3D7E702130787
:1010600040064186B3D6E702B3F7E702920663571C
:1010700006028E0793872703B3D7E70213F777009B
:10108000B367D700C207C1832314F400F25062543F
:1010900021618280925765B70A076DBF92079387D7
:1010A0002703B3D7E702BD8BD58FE9BF81C983572B
:1010B000C5000967D98F2316F50082800357C50044
:1010C000F977FD17F98FC5BF93F5F51F2312B5000A
:1010D0008280035505006D8D3335A0008280B737BF
:1010E0000240238007401307C0FC2386E740A38605
:1010F000E7402387E7403147A387E74003D7C1C0D4
:101100002398E74003D741C1239AE74003D741C062
:10111000239CE74003D781C0239EE74003D701C04B
:101120002390E74203D701C12392E74203D7C1BF0F
:101130002394E74203D781BF2396E74209472389D7
:10114000E742238BE742238DE742238FE742238147
:10115000E7442383E7442385E7442387E7447D5717
:101160002383E7401D472381E740A38107401307FE
:1011700090022380E740130710F8A380E7408280A5
:10118000B7370240238AA74203C767431377C70FC5
:10119000238BE7428280B7370240238CA74203C7E4
:1011A000A7431377C70F238DE7428280B7370240EA
:1011B000239EA74203C7E7431377C70F238FE74256
:1011C0008280B73702402380A74403C727441377A0
:1011D000C70F2381E7448280B73702402382A744A8
:1011E00003C767441377C70F2383E7448280B73769
:1011F00002402384A74403C7A7441377C70F23855E
:10120000E7448280B73702402386A74403C7E744F8
:101210001377C70F2387E7448280B707002083A78F
:10122000070737177A0013070720B3D7E70293F7AA
:10123000F70F238FF1801307803EB387E702239EC9
:10124000F1808280B7F700E023A0070003D7C181B7
:1012500023820700A3820700238307003305A70228
:10126000A3830700054798C337F700E05C43E37F9B
:10127000F5FE8280797122D42A8411658545110595
:1012800006D6193B930700202312F10037150140C1
:101290008D473EC44C00E147130505803EC60D3620
:1012A00022C837440140B70708000C081305048022
:1012B0003ECC02CA231E0100313B13050480854544
:1012C000F533B250225445618280011126CAB744D9
:1012D000014022CC4AC84EC606CEAE8932890144AE
:1012E00093840480634A2401F24062444A85D244D4
:1012F0004249B24905618280930500042685D13BAD
:1013000065DDB38789008385070026850504C2054E
:10131000C1815D3BC1BFB3C7A5008D8B3307C5003D
:1013200081E78D4763EEC700AA876370E50A83C62D
:10133000050085078505A38FD7FEE3EAE7FE8280D7
:1013400093763500AA8791CA83C60500850785056F
:10135000A38FD7FE93F63700FDB79376C7FF1386AA
:1013600006FE63F0C70683A3050083A2450083AF92
:10137000850003AFC50083AE050103AE450103A39D
:10138000850183A8C5019385450223A0770003A8A2
:10139000C5FF23A2570023A4F70123A6E70123A832
:1013A000D70123AAC70123AC670023AE1701938797
:1013B000470223AE07FF75B790419107910523AE11
:1013C000C7FEE3EBD7FEE3E4E7F6828039713EDA4D
:1013D0002ED232D436D63AD842DC46DE938781808C
:1013E00022CC804326CA06CEAA8409C41C4C99E3A9
:1013F000228515230C4454102686228536C6EF001C
:101400007016F2406244D24421618280011126CAE2
:101410004AC806CE22CC4EC652C4AA842E8901C523
:101420001C4D91E3CD299C4C804499E32685E52110
:101430009717000093878733631CF402C0408357DB
:10144000C400A18BB1C71C48A1C7FD59294A1C443F
:1014500083450900FD17B1E91CC463DE0706228637
:10146000A94526857120FD576308F502294535A059
:1014700097170000938787316314F4008044C1B745
:10148000971700009387872CE31BF4FAC04445BFED
:10149000A2852685312A55D97D55F2406244D24431
:1014A0004249B249224A056182801CC4050963D7BA
:1014B0000700184C63CBE700638945011C40138784
:1014C000170018C02380B70059B7228626850D2043
:1014D000E31F35F7D1B71C401387170018C0294701
:1014E0002380E70061B793878180AA85884339BF4D
:1014F000011122CC26CA4AC806CE4EC6AA842E891D
:10150000328401C51C4D91E3392197170000938760
:10151000E7256319F406C0401C4C1CC48357C40063
:10152000A18BC9C31C48BDCF1C4808409379F90F53
:101530001379F90F1D8D5C486346F500A285268559
:10154000652C2DE51C440505FD171CC41C401387A4
:10155000170018C0238037015C486389A7008357B0
:10156000C400858B81CBA9476316F900A285268527
:1015700061240DEDF24062444A85D2444249B249A9
:101580000561828097170000938747206314F40059
:10159000804459B7971700009387471BE31EF4F662
:1015A000C0449DBFA285268521203DDD7D59D9B748
:1015B00041119387818026C2844322C44AC006C653
:1015C0002A892E8489C49C4C99E32685A9269717DD
:1015D00000009387A719631CF402C0400317C400DE
:1015E00093170701C18393F68700B5EE93F60701C1
:1015F0009DEEA5472320F900136707042316E40096
:101600007D55B2402244924402494101828097179D
:1016100000009387A7176314F4008044C1B797179D
:1016200000009387A712E31BF4FAC04445BF918BD7
:101630008DC74C5889C9930744046384F5004A85D3
:10164000352B232A04028357C4002322040093F776
:10165000B7FD2316F4001C481CC08357C40093E751
:1016600087002316F4001C4881EF8357C40013073A
:10167000002093F707286385E700A2854A85852126
:101680008357C40013F7170005C75C4823240400E0
:10169000B307F0401CCC1C480145A5F78317C400D4
:1016A00013F7070839DF93E707042316F40089BF0F
:1016B000898B014791E3584818C4F1BF83D7C5000F
:1016C000011122CC26CA06CE4AC84EC613F787009F
:1016D000AA842E8471EFD841634DE000B841634A7B
:1016E000E0000145F2406244D2444249B2490561FA
:1016F000828058547DD703A904009396370123A014
:10170000040063DD060670488357C400918B99C7B7
:101710005C401D8E5C5899C33C401D8E5C540C503F
:10172000814626858297FD570357C400631DF50047
:101730009440F54763E8D706B70740208507B3D73D
:10174000D700858BA5C31C48232204001CC0931717
:10175000370163D80700FD576314F5009C4091E3FF
:1017600068C84C5823A02401ADDD9307440463846A
:10177000F50026852121232A0402A5B70C50014635
:10178000854626850297FD572A86E31FF5F69C407D
:10179000A5DF75476385E70059476394E70423A0F5
:1017A000240181B7136707042316E4007D551DBF8C
:1017B00083A90501E38709F203A905008D8B23A006
:1017C000350133093941014791E3D84918C4E35A37
:1017D00020F11C540C50CA864E8626858297634998
:1017E000A0008357C40093E707042316F4007DBFCD
:1017F000AA993309A940E1BF9C49B9CF011122CC74
:1018000006CE2A8411C51C4D81E72EC62922B24579
:1018100097170000938787F5639BF5004C408397EB
:10182000C50095C722856244F240056141BD971706
:1018300000009387A7F56394F5000C44CDB7971784
:1018400000009387A7F0E39CF5FC4C44C9BFF2402D
:10185000624401450561828001458280411122C4B4
:1018600006C62A842316B5002317C50023200500C9
:101870002322050023240500232205062328050032
:10188000232A0500232C0500214681451305C505A3
:10189000EFE01F8B971700009387E7B35CD0971793
:1018A0000000938747B61CD497170000938787BA28
:1018B0005CD497170000938747BD00D01CD8B24076
:1018C00022444101828097050000938525F3A9A257
:1018D000411126C2130680069384F5FFB384C40227
:1018E0004AC02E8922C406C693854407252E2A8421
:1018F00001CD2320050023222501310508C41386CC
:1019000084068145EFE0DF832285B2402244924481
:101910000249410182801C4DADE3411106C622C43B
:1019200097070000938767FA1CD5938701819C4332
:101930002324050423260504232805046314F50045
:1019400085471CCD2A841D2848C02285052808C447
:1019500022852D2048C4484001469145013708445E
:101960000546A545E53D48440946C945C53D854769
:101970001CCCB24022444101828082804111938775
:10198000018126C284434AC006C69C4C22C42A89CF
:1019900099E326854937938484048044DC40FD170D
:1019A00063D607009C40B9CF8440C5BF0317C4006D
:1019B00039E7C17785072322040623200400232268
:1019C0000400232404005CC423280400232A040008
:1019D000232C0400214681451305C405EFE04FF692
:1019E000232A0402232C04022324040423260404AF
:1019F0002285B2402244924402494101828013046C
:101A0000840671BF91454A85E13588C051FDB147D3
:101A10002320F9000144E9BF797122D44AD052CC85
:101A200056CA5AC85EC606D626D24ECE2A8AAE8A74
:101A3000130485040149054BFD5B09ECB2502254A7
:101A40004A8592540259F249624AD24A424BB24BF9
:101A500045618280044483294400FD1963D4090050
:101A60000040E1BF83D7C400637BFB008397E400A1
:101A700063877701A6855285829A3369A90093848A
:101A80008406E1BF1971A6DAAE848395E500A2DC75
:101A900086DE328463DC050083D7C40023A0060001
:101AA00093F7070885E7930700401DA0300836C666
:101AB000EF003023B246E34105FE7247BD67F98F60
:101AC0007977BA9793B717009CC2F1BF93070004C8
:101AD0001CC0F6506654D65401450961828083D7F4
:101AE000C500011122CC06CE26CA4AC8898B2E8495
:101AF00089CF930774041CC01CC885475CC8F2409A
:101B00006244D24442490561828074003000AA8454
:101B1000953FA2452A892685312201ED8317C4000D
:101B200013F7072069FFF19B93E727002316F400C2
:101B3000C9B797070000938747D99CD48357C4003F
:101B400008C008C893E707082316F400A2475CC83A
:101B5000B24791CF8315E4002685EF00301B01C901
:101B60008357C400F19B93E717002316F4008357B3
:101B7000C4003369F9002316240151B7DDC183A7DE
:101B8000C5FF411122C406C626C21384C5FF63D314
:101B900007003E94AA84EF00501E938701829C4365
:101BA00081EF2322040023A081822244B2402685B3
:101BB000924441016F00901C637EF400144033078F
:101BC000D4006396E7009843DC43369718C05CC0A6
:101BD000D9BFBA87D84319C3E37DE4FE9443338663
:101BE000D700631F86001040B29694C33386D70097
:101BF000E31DC7FA10435843B29694C3D8C375B7D0
:101C00006375C400B1479CC04DB71040B306C40013
:101C10006316D70014435843B29614C058C0C0C3CB
:101C200069B78280011126CA93843500F19806CEE7
:101C300022CC4AC84EC6A104B14763F3F404B144B0
:101C400063E2B4042A89EF0050139387018298431A
:101C50003A8439E0938741829C4391E781454A85E4
:101C6000A92723A2A182A6854A858127FD59631948
:101C70003507B1472320F9004A85EF00301029A02D
:101C8000E3D004FCB1471CC10145F2406244D24498
:101C90004249B249056182801C40858F63CF0702AB
:101CA000AD4663F6F6001CC03E9404C031A05C4013
:101CB0006313870223A0F1824A85EF00300C1305DD
:101CC000B4009307440061993307F5405DDF3A940F
:101CD000898F1CC05DBF5CC3C5B72287404095BFDC
:101CE000130435007198E30285FCB305A4404A85CE
:101CF0006D2DE31C35FBB5BF1C46FD171CC663DA12
:101D00000700184E63C5E700A9476394F5006FF01C
:101D10002FFE1C422E851387170018C22380B700A0
:101D20008280011122CC26CA4AC84EC652C406CEB1
:101D30002A89AE893284B304D6007D5A6314940094
:101D4000014509A8834504004E864A857537050478
:101D5000E31645FFF2406244D2444249B249224A66
:101D600005618280357122CD26CB4AC94EC706CF88
:101D700052C556C35AC1DEDEE2DCE6DAAA89AE8479
:101D80003289368401C51C4D91E3713697170000E6
:101D90009387C79D639BF40C83A4490083D7C40039
:101DA000A18BF5C79C48E5C793070002A304F10285
:101DB0009307000302D22305F10222C6930B5002BF
:101DC000971A0000938A8A9E054C294B4A848347C0
:101DD000040099C36390770FB30C2441638D0C000A
:101DE000E6864A86A6854E852D3FFD576306F51E7D
:101DF0009256E69636D283470400638F071CFD5740
:101E00001309140002C802CE3ECA02CCA309010481
:101E100082D4834509001546568599271304190075
:101E2000C24759E913F7070109C713070002A309BD
:101E3000E10413F7870009C71307B002A309E104FF
:101E4000834609001307A0026380E608F2474A842C
:101E5000814625460347040093051400130707FD38
:101E60006379E60AB5CA3ECE85A897170000938726
:101E7000E7916395F40083A489000DB797170000DC
:101E80009387C78CE39CF4F083A4C90001BFA685A7
:101E90004E85EFF0EFF109D97D55FA406A44DA44F6
:101EA0004A49BA492A4A9A4A0A4BF65B665CD65CAA
:101EB0000D618280050421BF330555413315AC0007
:101EC000C98F3EC82289B1B73247930647001843ED
:101ED00036C6634907023ACE034704009307E0027F
:101EE000631FF704034714009307A002631BF70264
:101EF000B2470904138747009C433AC663C10702EF
:101F00003ECA35A83307E04093E727003ACE3EC8E3
:101F1000E1B7B387670385462E84BA9725BFFD577F
:101F2000C5B7050402CA8146814725460347040018
:101F300093051400130707FD6376E606F1F2834567
:101F400004000D46171500001305C586112D11CD8F
:101F500097170000938707861D8D93070004B3979A
:101F6000A700424505045D8D2AC883450400194633
:101F70001715000013054584130914002304B1024A
:101F8000C5233DC197E7FFFF9387C70795E7424702
:101F9000B2471377071009CF91073EC69257D297E1
:101FA0003ED22DB5B387670385462E84BA97BDBF51
:101FB0009D07E19BA107D5B778009706000093869F
:101FC00086D626860C084E8597000000E7000000A4
:101FD000FD572A8AE314F5FC83D7C40093F707045E
:101FE000E39C07EA125555BD7800970600009386DA
:101FF00086D326860C084E85012AD9BF797156CA28
:102000009C49BA8A984522D426D24ECE52CC06D6C6
:102010004AD05AC85EC6AA892E84B284368A63D34F
:10202000E700BA879CC00347340419C385079CC0E6
:102030001C4093F7070281C79C4089079CC0032975
:10204000040013796900631A0900130B9401FD5B06
:102050005C449840998F634CF9041C4083463404D7
:1020600093F70702B336D000A5EB13063404D285EC
:102070004E85829AFD576303F5041C401146984033
:10208000998B544481446397C700B384E64063D37B
:10209000040081441C4418486354F700998FBE948F
:1020A000014969047D5B63982405014509A88546BB
:1020B0005A86D2854E85829A631E75017D55B2502F
:1020C000225492540259F249624AD24A424BB24BCC
:1020D000456182800509ADBF3307D40013060003B4
:1020E000A301C7040347540493871600A2978906E7
:1020F000A381E7049DBF85462286D2854E85829ABC
:10210000E30E65FB050945B7797122D426D24AD082
:102110004ECE06D652CC56CA5AC8B68983C6850159
:102120009307E0063289AA842E84138635046380DF
:10213000F61E63E2D706930730066382F60A63ED64
:10214000D700638A061E930780056386F616930AF6
:1021500024042301D40469A8930740066386F6008B
:1021600093079006E395F6FE1C40084393F6070894
:1021700093054500C1C21C410CC363D80700130777
:10218000D002B307F040A301E40497060000938651
:102190002663294765A0930730076382F61A63EF29
:1021A000D7009307F006638FF60493070007E390C8
:1021B000F6FA9C4193E707029CC109A893075007D0
:1021C0006382F60493078007E393F6F8930780078A
:1021D000A302F404970600009386C65FDDA01C43AB
:1021E000938A2504938647009C4314C32381F504F6
:1021F0008547ADA293F607041C410CC3BDDEC207A0
:10220000C187A5BF0C401C4313F805081385470080
:102210006305080008C39C4339A093F5050408C36F
:10222000FDD983D707001307F006638AE60C9706EB
:1022300000009386E6582947A30104044C400CC4CF
:1022400063C5050008406D9908C099E3B28A91CD35
:10225000B28AB3F5E702FD1AB69583C5050023805F
:10226000BA00B3D5E70263F2E70AA147631EF7009D
:102270001C40858B91CB58401C4863C7E7009307EF
:102280000003A38FFAFEFD1A3306564110C84E878D
:10229000CA867000A285268595337D5A6314450D44
:1022A0007D55B250225492540259F249624AD24AA0
:1022B000424B45618280A382D50497060000938635
:1022C00026500C40084313F805081C411105630013
:1022D000080208C313F7150001C793E505020CC0F7
:1022E0004147B9FB0C4093F5F5FD0CC0B1B713F8AD
:1022F000050408C3E30008FEC207C183E1BF9706D7
:1023000000009386E64B214705BFAE8799B79441FD
:102310001C43CC4913F806081385470063060800E0
:1023200008C39C438CC301A808C393F606049C43CE
:10233000F5DA2390B70023280400B28A89BF1C4332
:10234000D04181459386470014C383AA0700568570
:10235000012C01C53305554148C05C401CC8A30190
:10236000040435B714485686CA8526858299E30940
:1023700045F31C40898B8DE7B2474844E353F5F29F
:102380003E8505B785465686CA8526858299E30926
:1023900065F1050A5C443247998FE345FAFEE9BFCF
:1023A000014A930A94017D5BF5B7411122C42A8446
:1023B0002E8523AC01C006C63D24FD576317F500EA
:1023C000938781C19C4391C31CC0B2402244410108
:1023D0008280411122C42E848395E50006C64522E1
:1023E000634905007C48AA977CC8B2402244410159
:1023F00082808357C4007D777D17F98F2316F40000
:10240000EDB783D7C500011122CC26CA4AC84EC6F3
:1024100006CE93F70710AA842E843289B68991C715
:102420008395E5008946014631228357C4007D77B4
:102430007D17F98F2316F4008315E4006244F240FF
:10244000CE864A86B24942492685D24405613DA8D6
:10245000411122C42E848395E50006C6E128FD576C
:102460000357C400631BF500FD77FD17F98F231692
:10247000F400B2402244410182808567D98F23163F
:10248000F40068C8FDB78395E50005A8411122C492
:102490002A842E85B285368623AC01C006C6EFE0BD
:1024A000DFE2FD576317F500938781C19C4391C319
:1024B0001CC0B240224441018280411122C42A84BE
:1024C0002E8523AC01C006C6CD20FD576317F5004D
:1024D000938781C19C4391C31CC0B24022444101F7
:1024E0008280411122C42A842E85B28523AC01C08A
:1024F00006C6D120FD576317F500938781C19C4321
:1025000091C31CC0B240224441018280411122C4C7
:102510002A842E8523AC01C006C66520FD576317AB
:10252000F500938781C19C4391C31CC0B2402244F3
:1025300041018280411122C42A842E85B2853686CB
:1025400023AC01C006C66120FD576317F5009387D1
:1025500081C19C4391C31CC0B2402244410182808E
:1025600093F5F50F2A966314C500014582808347D1
:102570000500E38DB7FE0505FDB78280828041111D
:1025800022C42A842E85B285368623AC01C006C6B5
:10259000A920FD576317F500938781C19C4391C320
:1025A0001CC0B2402244410182809307800523ACC5
:1025B000F1C07D5582809307800523ACF1C07D5525
:1025C00082809307800523ACF1C001458280930788
:1025D000800523ACF1C07D5582809307800523AC34
:1025E000F1C07D558280938781829C4391C73E953F
:1025F00023A4A1823E8582809387C1C13E9523A4F6
:10260000A1823E8582800000400900004A09000046
:102610006E09000092090000B6090000DA09000006
:10262000FE090000220A00009207000018070000BF
:10263000380600003806000038060000B606000024
:10264000C805000038060000C0060000D6060000DD
:102650008C070000CC07000052080000740800003E
:1026600096080000B8080000DA080000FC08000026
:102670001E090000090274000101008032090400F3
:10268000000EFF8055000705870240000007050780
:1026900002400000070586024000000705060240D0
:1026A0000000070585024000000705050240000004
:1026B00007058402400000070504024000000705EA
:1026C0008302400000070503024000000705820264
:1026D000400000070502024000000705810240009B
:1026E000000705010240000012011001FF80554063
:1026F0004843375500010102000100000E03770036
:10270000630068002E0063006E0000000C034300AD
:10271000480031003000780053797374656D436C64
:102720006B3A25640D0A000035560D00332E3356E2
:102730000D000000555342484420446576696365A6
:1027400020546573740D00000000000000000000BC
:102750000000000000000000000000000000000079
:102760000000000000000000000000000000000069
:102770000000000000000000000000000000000059
:102780000000000000000000000000000000000049
:102790000000000000000000000000000000000039
:1027A0000000000000000000232D302B200000005E
:1027B000686C4C006566674546470000303132332F
:1027C000343536373839414243444546000000002D
:1027D0003031323334353637383961626364656697
:0427E00000000000F5
:1027E40000000000010203040102030406070809B3
:1027F4000000000068270000882700004827000028
:1028040000000000000000000000000000000000C4
:1028140000000000000000000000000000000000B4
:1028240000000000000000000000000000000000A4
:102834000000000000000000000000000000000094
:102844000000000000000000000000000000000084
:1028540000A24A040204060810000020040309042C
:0828640010000020000000003C
:00000001FF
